{"abi":[{"type":"constructor","inputs":[{"name":"config","type":"tuple","internalType":"struct MarketFactory.FactoryConfig","components":[{"name":"collateral","type":"address","internalType":"contract IERC20"},{"name":"creatorOverrideWindow","type":"uint64","internalType":"uint64"}]},{"name":"initialOwner","type":"address","internalType":"address"}],"stateMutability":"nonpayable"},{"type":"function","name":"BPS","inputs":[],"outputs":[{"name":"","type":"uint256","internalType":"uint256"}],"stateMutability":"view"},{"type":"function","name":"allMarkets","inputs":[],"outputs":[{"name":"markets","type":"address[]","internalType":"address[]"}],"stateMutability":"view"},{"type":"function","name":"collateral","inputs":[],"outputs":[{"name":"","type":"address","internalType":"contract IERC20"}],"stateMutability":"view"},{"type":"function","name":"createMarket","inputs":[{"name":"params","type":"tuple","internalType":"struct MarketFactory.MarketCreation","components":[{"name":"identifier","type":"uint256","internalType":"uint256"},{"name":"options","type":"string[]","internalType":"string[]"},{"name":"creator","type":"address","internalType":"address"},{"name":"endTime","type":"uint64","internalType":"uint64"},{"name":"creatorFeeBps","type":"uint96","internalType":"uint96"}]}],"outputs":[{"name":"market","type":"address","internalType":"address"}],"stateMutability":"nonpayable"},{"type":"function","name":"creatorOverrideWindow","inputs":[],"outputs":[{"name":"","type":"uint64","internalType":"uint64"}],"stateMutability":"view"},{"type":"function","name":"marketAt","inputs":[{"name":"index","type":"uint256","internalType":"uint256"}],"outputs":[{"name":"","type":"address","internalType":"address"}],"stateMutability":"view"},{"type":"function","name":"marketForIdentifier","inputs":[{"name":"","type":"uint256","internalType":"uint256"}],"outputs":[{"name":"","type":"address","internalType":"address"}],"stateMutability":"view"},{"type":"function","name":"owner","inputs":[],"outputs":[{"name":"","type":"address","internalType":"address"}],"stateMutability":"view"},{"type":"function","name":"setCreatorOverrideWindow","inputs":[{"name":"newWindow","type":"uint64","internalType":"uint64"}],"outputs":[],"stateMutability":"nonpayable"},{"type":"function","name":"totalMarkets","inputs":[],"outputs":[{"name":"","type":"uint256","internalType":"uint256"}],"stateMutability":"view"},{"type":"function","name":"transferOwnership","inputs":[{"name":"newOwner","type":"address","internalType":"address"}],"outputs":[],"stateMutability":"nonpayable"},{"type":"event","name":"CreatorOverrideWindowUpdated","inputs":[{"name":"previousWindow","type":"uint64","indexed":false,"internalType":"uint64"},{"name":"newWindow","type":"uint64","indexed":false,"internalType":"uint64"}],"anonymous":false},{"type":"event","name":"MarketCreated","inputs":[{"name":"identifier","type":"uint256","indexed":true,"internalType":"uint256"},{"name":"creator","type":"address","indexed":true,"internalType":"address"},{"name":"market","type":"address","indexed":false,"internalType":"address"},{"name":"options","type":"string[]","indexed":false,"internalType":"string[]"},{"name":"endTime","type":"uint64","indexed":false,"internalType":"uint64"}],"anonymous":false},{"type":"event","name":"OwnershipTransferred","inputs":[{"name":"previousOwner","type":"address","indexed":true,"internalType":"address"},{"name":"newOwner","type":"address","indexed":true,"internalType":"address"}],"anonymous":false}],"bytecode":{"object":"0x60a060405234801561001057600080fd5b50604051620033073803806200330783398101604081905261003191610187565b806001600160a01b03811661008d5760405162461bcd60e51b815260206004820152601360248201527f4f776e65723a207a65726f20616464726573730000000000000000000000000060448201526064015b60405180910390fd5b600080546001600160a01b0319166001600160a01b03831690811782556040519091907f8be0079c531659141344cd1fd0a4f28419497f9722a3daafe3b4186f6b6457e0908290a35081516001600160a01b031661012d5760405162461bcd60e51b815260206004820152601c60248201527f466163746f72793a20636f6c6c61746572616c207265717569726564000000006044820152606401610084565b5080516001600160a01b031660805260200151600080546001600160401b03909216600160a01b02600160a01b600160e01b0319909216919091179055610225565b6001600160a01b038116811461018457600080fd5b50565b600080828403606081121561019b57600080fd5b60408112156101a957600080fd5b50604080519081016001600160401b0380821183831017156101db57634e487b7160e01b600052604160045260246000fd5b81604052855191506101ec8261016f565b908252602085015190808216821461020357600080fd5b506020820152604084015190925061021a8161016f565b809150509250929050565b6080516130bf62000248600039600081816101af015261072301526130bf6000f3fe60806040523480156200001157600080fd5b5060043610620000d95760003560e01c8063920f0fb1116200008b578063f2fde38b1162000062578063f2fde38b14620001d1578063f3c5400614620001e8578063fce1dec214620001ff57600080fd5b8063920f0fb11462000179578063c0b4c0091462000192578063d8dfeb4514620001a957600080fd5b8063375a7cba11620000c0578063375a7cba14620001315780638162486b146200014a5780638da5cb5b146200015357600080fd5b8063249d39e914620000de578063366d568814620000fb575b600080fd5b620000e861271081565b6040519081526020015b60405180910390f35b6000546200011790600160a01b900467ffffffffffffffff1681565b60405167ffffffffffffffff9091168152602001620000f2565b6200013b6200022b565b604051620000f2919062000abf565b600254620000e8565b6000546001600160a01b03165b6040516001600160a01b039091168152602001620000f2565b620001906200018a36600462000b0e565b620002f5565b005b62000160620001a336600462000b41565b620003e6565b620001607f000000000000000000000000000000000000000000000000000000000000000081565b62000190620001e236600462000b7f565b6200090e565b62000160620001f936600462000baa565b62000a2a565b620001606200021036600462000baa565b6001602052600090815260409020546001600160a01b031681565b60025460609067ffffffffffffffff8111156200024c576200024c62000bc4565b60405190808252806020026020018201604052801562000276578160200160208202803683370190505b50905060005b600254811015620002f157600281815481106200029d576200029d62000bda565b9060005260206000200160009054906101000a90046001600160a01b0316828281518110620002d057620002d062000bda565b6001600160a01b03909216602092830291909101909101526001016200027c565b5090565b6000546001600160a01b03163314620003555760405162461bcd60e51b815260206004820152601560248201527f4f776e65723a206e6f7420617574686f72697a6564000000000000000000000060448201526064015b60405180910390fd5b6000546040805167ffffffffffffffff600160a01b9093048316815291831660208301527f549cb8c0b87b3a6ddb31c7e2dd6b66f16ddc283b8c41d6c6778b96fc6a4affb3910160405180910390a16000805467ffffffffffffffff909216600160a01b027fffffffff0000000000000000ffffffffffffffffffffffffffffffffffffffff909216919091179055565b60006002620003f9602084018462000bf0565b905010156200044b5760405162461bcd60e51b815260206004820152601860248201527f466163746f72793a206d696e2074776f206f7074696f6e73000000000000000060448201526064016200034c565b60006200045f606084016040850162000b7f565b6001600160a01b031603620004b75760405162461bcd60e51b815260206004820152601860248201527f466163746f72793a2063726561746f72206973207a65726f000000000000000060448201526064016200034c565b42620004ca608084016060850162000b0e565b67ffffffffffffffff1611620005235760405162461bcd60e51b815260206004820152601960248201527f466163746f72793a20696e76616c696420656e642074696d650000000000000060448201526064016200034c565b6127106200053860a084016080850162000c44565b6bffffffffffffffffffffffff161115620005965760405162461bcd60e51b815260206004820152601860248201527f466163746f72793a20666565206578636565647320627073000000000000000060448201526064016200034c565b81356000908152600160205260409020546001600160a01b031615620005ff5760405162461bcd60e51b815260206004820152601660248201527f466163746f72793a206d61726b6574206578697374730000000000000000000060448201526064016200034c565b600062000610602084018462000bf0565b905067ffffffffffffffff8111156200062d576200062d62000bc4565b6040519080825280602002602001820160405280156200066257816020015b60608152602001906001900390816200064c5790505b50905060005b62000677602085018562000bf0565b9050811015620007165762000690602085018562000bf0565b82818110620006a357620006a362000bda565b9050602002810190620006b7919062000c74565b8080601f016020809104026020016040519081016040528093929190818152602001838380828437600092019190915250508451859250849150811062000702576200070262000bda565b602090810291909101015260010162000668565b506040805160e0810182527f00000000000000000000000000000000000000000000000000000000000000006001600160a01b0316815260008054600160a01b900467ffffffffffffffff16602083015291818101906200077e906060880190880162000b7f565b6001600160a01b031681526020016200079e60a087016080880162000c44565b6bffffffffffffffffffffffff168152602001620007c3608087016060880162000b0e565b67ffffffffffffffff16815260200185600001358152602001838152509050600081604051620007f39062000ab1565b620007ff919062000d4a565b604051809103906000f0801580156200081c573d6000803e3d6000fd5b508535600090815260016020819052604080832080546001600160a01b03861673ffffffffffffffffffffffffffffffffffffffff1991821681179092556002805494850181559094527f405787fa12a823e0f2b7631cc41b3ba8828b3321ca811111fa75cd3aa3bb5ace9092018054909316909117909155909450849150620008ad906060870190870162000b7f565b6001600160a01b031685357fb999058a1886f973df40ee28d61d17c7d1c408a1bafe620d9db05285d843cbb58686620008ed60808b0160608c0162000b0e565b604051620008fe9392919062000dd7565b60405180910390a3505050919050565b6000546001600160a01b031633146200096a5760405162461bcd60e51b815260206004820152601560248201527f4f776e65723a206e6f7420617574686f72697a6564000000000000000000000060448201526064016200034c565b6001600160a01b038116620009c25760405162461bcd60e51b815260206004820152601360248201527f4f776e65723a207a65726f20616464726573730000000000000000000000000060448201526064016200034c565b600080546040516001600160a01b03808516939216917f8be0079c531659141344cd1fd0a4f28419497f9722a3daafe3b4186f6b6457e091a36000805473ffffffffffffffffffffffffffffffffffffffff19166001600160a01b0392909216919091179055565b600254600090821062000a805760405162461bcd60e51b815260206004820152601c60248201527f466163746f72793a20696e646578206f7574206f6620626f756e64730000000060448201526064016200034c565b6002828154811062000a965762000a9662000bda565b6000918252602090912001546001600160a01b031692915050565b6122a98062000e1683390190565b6020808252825182820181905260009190848201906040850190845b8181101562000b025783516001600160a01b03168352928401929184019160010162000adb565b50909695505050505050565b60006020828403121562000b2157600080fd5b813567ffffffffffffffff8116811462000b3a57600080fd5b9392505050565b60006020828403121562000b5457600080fd5b813567ffffffffffffffff81111562000b6c57600080fd5b820160a0818503121562000b3a57600080fd5b60006020828403121562000b9257600080fd5b81356001600160a01b038116811462000b3a57600080fd5b60006020828403121562000bbd57600080fd5b5035919050565b634e487b7160e01b600052604160045260246000fd5b634e487b7160e01b600052603260045260246000fd5b6000808335601e1984360301811262000c0857600080fd5b83018035915067ffffffffffffffff82111562000c2457600080fd5b6020019150600581901b360382131562000c3d57600080fd5b9250929050565b60006020828403121562000c5757600080fd5b81356bffffffffffffffffffffffff8116811462000b3a57600080fd5b6000808335601e1984360301811262000c8c57600080fd5b83018035915067ffffffffffffffff82111562000ca857600080fd5b60200191503681900382131562000c3d57600080fd5b600082825180855260208086019550808260051b8401018186016000805b8581101562000d3c57601f1980888603018b5283518051808752845b8181101562000d15578281018901518882018a0152880162000cf8565b5086810188018590529b87019b601f01909116909401850193509184019160010162000cdc565b509198975050505050505050565b6020815260006001600160a01b03808451166020840152602084015167ffffffffffffffff80821660408601528260408701511660608601526bffffffffffffffffffffffff60608701511660808601528060808701511660a086015250505060a083015160c083015260c083015160e08084015262000dcf61010084018262000cbe565b949350505050565b6001600160a01b038416815260606020820152600062000dfb606083018562000cbe565b905067ffffffffffffffff8316604083015294935050505056fe6101606040523480156200001257600080fd5b50604051620022a9380380620022a98339810160408190526200003591620004b4565b600160005580516001600160a01b0316620000975760405162461bcd60e51b815260206004820152601b60248201527f4d61726b65743a20636f6c6c61746572616c207265717569726564000000000060448201526064015b60405180910390fd5b60028160c00151511015620000ef5760405162461bcd60e51b815260206004820152601760248201527f4d61726b65743a206d696e2074776f206f7074696f6e7300000000000000000060448201526064016200008e565b61271081606001516001600160601b03161115620001505760405162461bcd60e51b815260206004820152601b60248201527f4d61726b65743a20696e76616c69642063726561746f7220666565000000000060448201526064016200008e565b4281608001516001600160401b031611620001ae5760405162461bcd60e51b815260206004820152601360248201527f4d61726b65743a20656e6420696e20706173740000000000000000000000000060448201526064016200008e565b60408101516001600160a01b03166200020a5760405162461bcd60e51b815260206004820152601860248201527f4d61726b65743a2063726561746f72207265717569726564000000000000000060448201526064016200008e565b80516001600160a01b03908116608090815260208301516001600160401b0390811660c05260408401519092166101005260608301516001600160601b031661012052820151166101405260a08082015160e05233905260005b8160c0015151811015620002c25760098260c0015182815181106200028d576200028d62000591565b60209081029190910181015182546001810184556000938452919092200190620002b8908262000638565b5060010162000264565b50506001805460ff1916905562000704565b634e487b7160e01b600052604160045260246000fd5b60405160e081016001600160401b03811182821017156200030f576200030f620002d4565b60405290565b604051601f8201601f191681016001600160401b0381118282101715620003405762000340620002d4565b604052919050565b80516001600160a01b03811681146200036057600080fd5b919050565b80516001600160401b03811681146200036057600080fd5b80516001600160601b03811681146200036057600080fd5b6000601f83601f840112620003a957600080fd5b825160206001600160401b0380831115620003c857620003c8620002d4565b8260051b620003d983820162000315565b9384528681018301938381019089861115620003f457600080fd5b84890192505b85831015620004a757825184811115620004145760008081fd5b8901603f81018b13620004275760008081fd5b85810151858111156200043e576200043e620002d4565b62000451818a01601f1916880162000315565b81815260408d81848601011115620004695760008081fd5b60005b8381101562000489578481018201518382018b015289016200046c565b505060009181018801919091528352509184019190840190620003fa565b9998505050505050505050565b600060208284031215620004c757600080fd5b81516001600160401b0380821115620004df57600080fd5b9083019060e08286031215620004f457600080fd5b620004fe620002ea565b620005098362000348565b8152620005196020840162000365565b60208201526200052c6040840162000348565b60408201526200053f606084016200037d565b6060820152620005526080840162000365565b608082015260a083015160a082015260c0830151828111156200057457600080fd5b620005828782860162000395565b60c08301525095945050505050565b634e487b7160e01b600052603260045260246000fd5b600181811c90821680620005bc57607f821691505b602082108103620005dd57634e487b7160e01b600052602260045260246000fd5b50919050565b601f82111562000633576000816000526020600020601f850160051c810160208610156200060e5750805b601f850160051c820191505b818110156200062f578281556001016200061a565b5050505b505050565b81516001600160401b03811115620006545762000654620002d4565b6200066c81620006658454620005a7565b84620005e3565b602080601f831160018114620006a457600084156200068b5750858301515b600019600386901b1c1916600185901b1785556200062f565b600085815260208120601f198616915b82811015620006d557888601518255948401946001909101908401620006b4565b5085821015620006f45787850151600019600388901b60f8161c191681555b5050505050600190811b01905550565b60805160a05160c05160e051610100516101205161014051611b04620007a5600039600081816102aa01528181610a9101528181610ca7015261109501526000818161025d01526112920152600081816101ef0152818161068201526112fd015260006103a90152600081816102ea015281816106c101526107b70152600061044f01526000818161048b015281816113f4015261155d0152611b046000f3fe608060405234801561001057600080fd5b50600436106101e55760003560e01c806396684bdb1161010f578063d9fe7480116100a2578063e88499a911610071578063e88499a9146104e4578063f481d3be146104ec578063f56039a8146104fe578063f72d42191461051157600080fd5b8063d9fe7480146104ad578063dcb3b30e146104c0578063e2cbdd85146104d3578063e32fe90b146104dc57600080fd5b8063c19d93fb116100de578063c19d93fb14610430578063c45a01551461044a578063cc2ee19614610471578063d8dfeb451461048657600080fd5b806396684bdb146103f1578063a8e4fb90146103fa578063b4d3aa8414610414578063ba422b3b1461042757600080fd5b80633f530bbb116101875780637998a1c4116101565780637998a1c4146103a45780637f03c36c146103cb578063817b1cd2146103e05780639349d051146103e957600080fd5b80633f530bbb1461030c578063404002a61461033757806346b731771461035c57806373b2e80e1461037157600080fd5b806317773ebb116101c357806317773ebb14610258578063249d39e91461029c5780633197cbb6146102a5578063366d5688146102e557600080fd5b806302d05d3f146101ea57806304a617521461022e57806304f3bcec14610245575b600080fd5b6102117f000000000000000000000000000000000000000000000000000000000000000081565b6040516001600160a01b0390911681526020015b60405180910390f35b61023760035481565b604051908152602001610225565b600254610211906001600160a01b031681565b61027f7f000000000000000000000000000000000000000000000000000000000000000081565b6040516bffffffffffffffffffffffff9091168152602001610225565b61023761271081565b6102cc7f000000000000000000000000000000000000000000000000000000000000000081565b60405167ffffffffffffffff9091168152602001610225565b6102cc7f000000000000000000000000000000000000000000000000000000000000000081565b61023761031a36600461166f565b600b60209081526000928352604080842090915290825290205481565b60015461034a9062010000900460ff1681565b60405160ff9091168152602001610225565b610364610531565b60405161022591906116f2565b61039461037f36600461170c565b600c6020526000908152604090205460ff1681565b6040519015158152602001610225565b6102377f000000000000000000000000000000000000000000000000000000000000000081565b6103de6103d9366004611727565b6105bf565b005b61023760055481565b6103de610729565b61023760075481565b60015461021190630100000090046001600160a01b031681565b610364610422366004611742565b610828565b61023760085481565b60015461043d9060ff1681565b6040516102259190611771565b6102117f000000000000000000000000000000000000000000000000000000000000000081565b6104796108fa565b6040516102259190611799565b6102117f000000000000000000000000000000000000000000000000000000000000000081565b6103de6104bb3660046117fd565b610a2f565b6103de6104ce366004611880565b610bf0565b61023760065481565b600954610237565b6103de610de3565b60015461034a90610100900460ff1681565b6103de61050c366004611880565b610fde565b61023761051f366004611727565b600a6020526000908152604090205481565b6004805461053e906118aa565b80601f016020809104026020016040519081016040528092919081815260200182805461056a906118aa565b80156105b75780601f1061058c576101008083540402835291602001916105b7565b820191906000526020600020905b81548152906001019060200180831161059a57829003601f168201915b505050505081565b6002600054036106165760405162461bcd60e51b815260206004820152601f60248201527f5265656e7472616e637947756172643a207265656e7472616e742063616c6c0060448201526064015b60405180910390fd5b6002600055600954819060ff82161061064257604051632a71953160e01b815260040160405180910390fd5b6001805460ff16600281111561065a5761065a61175b565b14610677576040516282b42960e81b815260040160405180910390fd5b336001600160a01b037f000000000000000000000000000000000000000000000000000000000000000016146106bf576040516282b42960e81b815260040160405180910390fd5b7f000000000000000000000000000000000000000000000000000000000000000067ffffffffffffffff166003546106f791906118f4565b421115610716576040516282b42960e81b815260040160405180910390fd5b61072082336111ca565b50506001600055565b60026000540361077b5760405162461bcd60e51b815260206004820152601f60248201527f5265656e7472616e637947756172643a207265656e7472616e742063616c6c00604482015260640161060d565b60026000556001805460ff1660028111156107985761079861175b565b146107b5576040516282b42960e81b815260040160405180910390fd5b7f000000000000000000000000000000000000000000000000000000000000000067ffffffffffffffff166003546107ed91906118f4565b42101561080c576040516282b42960e81b815260040160405180910390fd5b60015461082190610100900460ff16336111ca565b6001600055565b600954606090821061084d57604051632a71953160e01b815260040160405180910390fd5b600982815481106108605761086061190d565b906000526020600020018054610875906118aa565b80601f01602080910402602001604051908101604052809291908181526020018280546108a1906118aa565b80156108ee5780601f106108c3576101008083540402835291602001916108ee565b820191906000526020600020905b8154815290600101906020018083116108d157829003601f168201915b50505050509050919050565b60095460609060009067ffffffffffffffff81111561091b5761091b611923565b60405190808252806020026020018201604052801561094e57816020015b60608152602001906001900390816109395790505b50905060005b600954811015610a2957600981815481106109715761097161190d565b906000526020600020018054610986906118aa565b80601f01602080910402602001604051908101604052809291908181526020018280546109b2906118aa565b80156109ff5780601f106109d4576101008083540402835291602001916109ff565b820191906000526020600020905b8154815290600101906020018083116109e257829003601f168201915b5050505050828281518110610a1657610a1661190d565b6020908102919091010152600101610954565b50919050565b600260005403610a815760405162461bcd60e51b815260206004820152601f60248201527f5265656e7472616e637947756172643a207265656e7472616e742063616c6c00604482015260640161060d565b600260005567ffffffffffffffff7f000000000000000000000000000000000000000000000000000000000000000016421015610ad15760405163e2c865df60e01b815260040160405180910390fd5b600060015460ff166002811115610aea57610aea61175b565b14610b085760405163e2c865df60e01b815260040160405180910390fd5b600954839060ff821610610b2f57604051632a71953160e01b815260040160405180910390fd5b600180547fffffffffffffffffff0000000000000000000000000000000000000000ff00001661010060ff8716027fffffffffffffffffff0000000000000000000000000000000000000000ffffff1617336301000000021781179055426003556004610b9d83858361198a565b50336001600160a01b03168460ff167fa37c6228a9addc8843ccfbc9a5a5f4cabd07730b2450a80abc7681f327ab163f8585604051610bdd929190611a4b565b60405180910390a3505060016000555050565b600260005403610c425760405162461bcd60e51b815260206004820152601f60248201527f5265656e7472616e637947756172643a207265656e7472616e742063616c6c00604482015260640161060d565b6002600090815560015460ff166002811115610c6057610c6061175b565b14610c7e5760405163e2c865df60e01b815260040160405180910390fd5b600954829060ff821610610ca557604051632a71953160e01b815260040160405180910390fd5b7f000000000000000000000000000000000000000000000000000000000000000067ffffffffffffffff164210610cef5760405163e2c865df60e01b815260040160405180910390fd5b81600003610d105760405163162908e360e11b815260040160405180910390fd5b610d1a3383611370565b336000908152600b6020908152604080832060ff8716845290915281208054849290610d479084906118f4565b909155505060ff83166000908152600a602052604081208054849290610d6e9084906118f4565b925050819055508160056000828254610d8791906118f4565b909155505060ff83166000818152600a60209081526040918290205482518681529182015233917f8d3970b91d4f8dbb1a8368398f1ac8bdd7a7fb5682c8360b7396214f65d7e55f910160405180910390a35050600160005550565b600260005403610e355760405162461bcd60e51b815260206004820152601f60248201527f5265656e7472616e637947756172643a207265656e7472616e742063616c6c00604482015260640161060d565b6002600081905560015460ff166002811115610e5357610e5361175b565b14610e8a576040517f2e96c72600000000000000000000000000000000000000000000000000000000815260040160405180910390fd5b336000908152600c602052604090205460ff1615610ed4576040517f646cf55800000000000000000000000000000000000000000000000000000000815260040160405180910390fd5b600654600003610ef7576040516312d37ee560e31b815260040160405180910390fd5b336000908152600b6020908152604080832060015462010000900460ff16845290915281205490819003610f3e576040516312d37ee560e31b815260040160405180910390fd5b336000908152600c60209081526040808320805460ff19166001908117909155600b8352818420905462010000900460ff1684529091528120819055600654600754610f8a9084611a7a565b610f949190611a91565b9050610fa033826114df565b60405181815233907fec68461f5d4cc45c89e914cb8826a966c73dd35e5f97815ece0a01ffa4a025a69060200160405180910390a250506001600055565b6002600054036110305760405162461bcd60e51b815260206004820152601f60248201527f5265656e7472616e637947756172643a207265656e7472616e742063616c6c00604482015260640161060d565b6002600090815560015460ff16600281111561104e5761104e61175b565b1461106c5760405163e2c865df60e01b815260040160405180910390fd5b600954829060ff82161061109357604051632a71953160e01b815260040160405180910390fd5b7f000000000000000000000000000000000000000000000000000000000000000067ffffffffffffffff1642106110dd5760405163e2c865df60e01b815260040160405180910390fd5b816000036110fe5760405163162908e360e11b815260040160405180910390fd5b336000908152600b6020908152604080832060ff871684529091529020548281101561113d5760405163162908e360e11b815260040160405180910390fd5b336000818152600b6020908152604080832060ff8916845282528083208786039055600a90915290208054859003905560058054859003905561118090846114df565b60ff84166000818152600a60209081526040918290205482518781529182015233917f62a1ef7bdb120745c2af942f04dab40b294e104341ba5ce2292809a86bc1d6139101610bdd565b600260015460ff1660028111156111e3576111e361175b565b03611200576040516282b42960e81b815260040160405180910390fd5b60018054600262ff00ff199091166201000060ff861690810291909117821790925580547fffffffffffffffffffffffff0000000000000000000000000000000000000000166001600160a01b0384161790556000908152600a6020526040812054600554909190611273908390611ab3565b9050600081156112c5576127106112b86bffffffffffffffffffffffff7f00000000000000000000000000000000000000000000000000000000000000001684611a7a565b6112c29190611a91565b90505b6006839055600881905580156112eb57806005546112e39190611ab3565b6007556112f2565b6005546007555b8015611322576113227f0000000000000000000000000000000000000000000000000000000000000000826114df565b836001600160a01b03168560ff167f0e512627591987181ca91facfd73461afa829898351cda88f57ce4beb028965c8360405161136191815260200190565b60405180910390a35050505050565b604080516001600160a01b038481166024830152306044830152606480830185905283518084039091018152608490920183526020820180517bffffffffffffffffffffffffffffffffffffffffffffffffffffffff167f23b872dd00000000000000000000000000000000000000000000000000000000179052915160009283927f0000000000000000000000000000000000000000000000000000000000000000909116916114219190611ac6565b6000604051808303816000865af19150503d806000811461145e576040519150601f19603f3d011682016040523d82523d6000602084013e611463565b606091505b509150915081801561148d57508051158061148d57508080602001905181019061148d9190611ae2565b6114d95760405162461bcd60e51b815260206004820152601b60248201527f4d61726b65743a207472616e7366657246726f6d206661696c65640000000000604482015260640161060d565b50505050565b604080516001600160a01b038481166024830152604480830185905283518084039091018152606490920183526020820180517bffffffffffffffffffffffffffffffffffffffffffffffffffffffff167fa9059cbb00000000000000000000000000000000000000000000000000000000179052915160009283927f00000000000000000000000000000000000000000000000000000000000000009091169161158a9190611ac6565b6000604051808303816000865af19150503d80600081146115c7576040519150601f19603f3d011682016040523d82523d6000602084013e6115cc565b606091505b50915091508180156115f65750805115806115f65750808060200190518101906115f69190611ae2565b6114d95760405162461bcd60e51b815260206004820152601760248201527f4d61726b65743a207472616e73666572206661696c6564000000000000000000604482015260640161060d565b80356001600160a01b038116811461165957600080fd5b919050565b803560ff8116811461165957600080fd5b6000806040838503121561168257600080fd5b61168b83611642565b91506116996020840161165e565b90509250929050565b60005b838110156116bd5781810151838201526020016116a5565b50506000910152565b600081518084526116de8160208601602086016116a2565b601f01601f19169290920160200192915050565b60208152600061170560208301846116c6565b9392505050565b60006020828403121561171e57600080fd5b61170582611642565b60006020828403121561173957600080fd5b6117058261165e565b60006020828403121561175457600080fd5b5035919050565b634e487b7160e01b600052602160045260246000fd5b602081016003831061179357634e487b7160e01b600052602160045260246000fd5b91905290565b600060208083016020845280855180835260408601915060408160051b87010192506020870160005b828110156117f057603f198886030184526117de8583516116c6565b945092850192908501906001016117c2565b5092979650505050505050565b60008060006040848603121561181257600080fd5b61181b8461165e565b9250602084013567ffffffffffffffff8082111561183857600080fd5b818601915086601f83011261184c57600080fd5b81358181111561185b57600080fd5b87602082850101111561186d57600080fd5b6020830194508093505050509250925092565b6000806040838503121561189357600080fd5b61189c8361165e565b946020939093013593505050565b600181811c908216806118be57607f821691505b602082108103610a2957634e487b7160e01b600052602260045260246000fd5b634e487b7160e01b600052601160045260246000fd5b80820180821115611907576119076118de565b92915050565b634e487b7160e01b600052603260045260246000fd5b634e487b7160e01b600052604160045260246000fd5b601f821115611985576000816000526020600020601f850160051c810160208610156119625750805b601f850160051c820191505b818110156119815782815560010161196e565b5050505b505050565b67ffffffffffffffff8311156119a2576119a2611923565b6119b6836119b083546118aa565b83611939565b6000601f8411600181146119ea57600085156119d25750838201355b600019600387901b1c1916600186901b178355611a44565b600083815260209020601f19861690835b82811015611a1b57868501358255602094850194600190920191016119fb565b5086821015611a385760001960f88860031b161c19848701351681555b505060018560011b0183555b5050505050565b60208152816020820152818360408301376000818301604090810191909152601f909201601f19160101919050565b8082028115828204841417611907576119076118de565b600082611aae57634e487b7160e01b600052601260045260246000fd5b500490565b81810381811115611907576119076118de565b60008251611ad88184602087016116a2565b9190910192915050565b600060208284031215611af457600080fd5b8151801515811461170557600080fd","linkReferences":{}},"methodIdentifiers":{"BPS()":"249d39e9","allMarkets()":"375a7cba","collateral()":"d8dfeb45","createMarket((uint256,string[],address,uint64,uint96))":"c0b4c009","creatorOverrideWindow()":"366d5688","marketAt(uint256)":"f3c54006","marketForIdentifier(uint256)":"fce1dec2","owner()":"8da5cb5b","setCreatorOverrideWindow(uint64)":"920f0fb1","totalMarkets()":"8162486b","transferOwnership(address)":"f2fde38b"},"id":5}