{"abi":[{"type":"constructor","inputs":[{"name":"config","type":"tuple","internalType":"struct MarketFactory.FactoryConfig","components":[{"name":"collateral","type":"address","internalType":"contract IERC20"},{"name":"creatorOverrideWindow","type":"uint64","internalType":"uint64"}]},{"name":"initialOwner","type":"address","internalType":"address"}],"stateMutability":"nonpayable"},{"type":"function","name":"BPS","inputs":[],"outputs":[{"name":"","type":"uint256","internalType":"uint256"}],"stateMutability":"view"},{"type":"function","name":"allMarkets","inputs":[],"outputs":[{"name":"markets","type":"address[]","internalType":"address[]"}],"stateMutability":"view"},{"type":"function","name":"collateral","inputs":[],"outputs":[{"name":"","type":"address","internalType":"contract IERC20"}],"stateMutability":"view"},{"type":"function","name":"createMarket","inputs":[{"name":"params","type":"tuple","internalType":"struct MarketFactory.MarketCreation","components":[{"name":"identifier","type":"uint256","internalType":"uint256"},{"name":"options","type":"string[]","internalType":"string[]"},{"name":"creator","type":"address","internalType":"address"},{"name":"endTime","type":"uint64","internalType":"uint64"},{"name":"creatorFeeBps","type":"uint96","internalType":"uint96"},{"name":"question","type":"string","internalType":"string"},{"name":"description","type":"string","internalType":"string"},{"name":"category","type":"string","internalType":"string"},{"name":"resolutionSource","type":"string","internalType":"string"},{"name":"platform","type":"uint8","internalType":"enum Market.Platform"},{"name":"postUrl","type":"string","internalType":"string"},{"name":"minBet","type":"uint256","internalType":"uint256"},{"name":"maxBetPerUser","type":"uint256","internalType":"uint256"},{"name":"maxTotalStake","type":"uint256","internalType":"uint256"}]}],"outputs":[{"name":"market","type":"address","internalType":"address"}],"stateMutability":"nonpayable"},{"type":"function","name":"creatorOverrideWindow","inputs":[],"outputs":[{"name":"","type":"uint64","internalType":"uint64"}],"stateMutability":"view"},{"type":"function","name":"marketAt","inputs":[{"name":"index","type":"uint256","internalType":"uint256"}],"outputs":[{"name":"","type":"address","internalType":"address"}],"stateMutability":"view"},{"type":"function","name":"marketForIdentifier","inputs":[{"name":"","type":"uint256","internalType":"uint256"}],"outputs":[{"name":"","type":"address","internalType":"address"}],"stateMutability":"view"},{"type":"function","name":"owner","inputs":[],"outputs":[{"name":"","type":"address","internalType":"address"}],"stateMutability":"view"},{"type":"function","name":"setCreatorOverrideWindow","inputs":[{"name":"newWindow","type":"uint64","internalType":"uint64"}],"outputs":[],"stateMutability":"nonpayable"},{"type":"function","name":"totalMarkets","inputs":[],"outputs":[{"name":"","type":"uint256","internalType":"uint256"}],"stateMutability":"view"},{"type":"function","name":"transferOwnership","inputs":[{"name":"newOwner","type":"address","internalType":"address"}],"outputs":[],"stateMutability":"nonpayable"},{"type":"event","name":"CreatorOverrideWindowUpdated","inputs":[{"name":"previousWindow","type":"uint64","indexed":false,"internalType":"uint64"},{"name":"newWindow","type":"uint64","indexed":false,"internalType":"uint64"}],"anonymous":false},{"type":"event","name":"MarketCreated","inputs":[{"name":"identifier","type":"uint256","indexed":true,"internalType":"uint256"},{"name":"creator","type":"address","indexed":true,"internalType":"address"},{"name":"market","type":"address","indexed":false,"internalType":"address"},{"name":"options","type":"string[]","indexed":false,"internalType":"string[]"},{"name":"endTime","type":"uint64","indexed":false,"internalType":"uint64"},{"name":"creatorFeeBps","type":"uint96","indexed":false,"internalType":"uint96"},{"name":"question","type":"string","indexed":false,"internalType":"string"},{"name":"description","type":"string","indexed":false,"internalType":"string"},{"name":"category","type":"string","indexed":false,"internalType":"string"},{"name":"resolutionSource","type":"string","indexed":false,"internalType":"string"},{"name":"platform","type":"uint8","indexed":false,"internalType":"enum Market.Platform"},{"name":"postUrl","type":"string","indexed":false,"internalType":"string"},{"name":"createdAt","type":"uint64","indexed":false,"internalType":"uint64"},{"name":"minBet","type":"uint256","indexed":false,"internalType":"uint256"},{"name":"maxBetPerUser","type":"uint256","indexed":false,"internalType":"uint256"},{"name":"maxTotalStake","type":"uint256","indexed":false,"internalType":"uint256"}],"anonymous":false},{"type":"event","name":"OwnershipTransferred","inputs":[{"name":"previousOwner","type":"address","indexed":true,"internalType":"address"},{"name":"newOwner","type":"address","indexed":true,"internalType":"address"}],"anonymous":false}],"bytecode":{"object":"0x60a0346101a457601f6200487338819003918201601f19168301926001600160401b0392909190838511838610176101a95780839260409687528339810103606081126101a45783136101a457825191838301838110828211176101a957845281516001600160a01b03929083811681036101a4578452602081015191821682036101a4578490602085019283520151918083168093036101a4578215610160576000549385518460007f8be0079c531659141344cd1fd0a4f28419497f9722a3daafe3b4186f6b6457e08180a3828251161561011e57505116608052516001600160e01b03199092161760a09190911b600160a01b600160e01b031617600055516146b39081620001c0823960805181818161025801526105720152f35b62461bcd60e51b815260206004820152601c60248201527f466163746f72793a20636f6c6c61746572616c207265717569726564000000006044820152606490fd5b845162461bcd60e51b815260206004820152601360248201527f4f776e65723a207a65726f2061646472657373000000000000000000000000006044820152606490fd5b600080fd5b634e487b7160e01b600052604160045260246000fdfe60808060405260043610156200001457600080fd5b60003560e01c908163249d39e91462000e2a57508063366d56881462000dfd578063375a7cba1462000d2e5780638162486b1462000d0e5780638da5cb5b1462000ce5578063920f0fb11462000c1e578063d47b4a05146200027c578063d8dfeb451462000236578063f2fde38b146200016a578063f3c5400614620000e05763fce1dec214620000a457600080fd5b34620000db576020366003190112620000db57600435600052600160205260206001600160a01b0360406000205416604051908152f35b600080fd5b34620000db576020366003190112620000db5760043560025481101562000126576001600160a01b036200011660209262000e87565b9190546040519260031b1c168152f35b606460405162461bcd60e51b815260206004820152601c60248201527f466163746f72793a20696e646578206f7574206f6620626f756e6473000000006044820152fd5b34620000db576020366003190112620000db576004356001600160a01b03808216809203620000db5760005490811690620001a782331462000ed4565b8215620001f2578273ffffffffffffffffffffffffffffffffffffffff19927f8be0079c531659141344cd1fd0a4f28419497f9722a3daafe3b4186f6b6457e0600080a31617600055005b606460405162461bcd60e51b815260206004820152601360248201527f4f776e65723a207a65726f2061646472657373000000000000000000000000006044820152fd5b34620000db576000366003190112620000db5760206040516001600160a01b037f0000000000000000000000000000000000000000000000000000000000000000168152f35b34620000db57600319602036820112620000db5767ffffffffffffffff60043511620000db576101c09060043536030112620000db576002620002ca60246004350160043560040162000f20565b90501062000bda576001600160a01b03620002ea60446004350162000f59565b161562000b96576200030160646004350162000f6e565b67ffffffffffffffff429116111562000b52576127106bffffffffffffffffffffffff6200033460846004350162000f84565b161162000b0e576004356004013560005260016020526001600160a01b036040600020541662000aca576200037460246004350160043560040162000f20565b90506200038b620003858262000e6e565b62000e47565b908082526200039d601f199162000e6e565b0160005b81811062000ab8578260005b620003c360246004350160043560040162000f20565b90508110156200044457620003e360246004350160043560040162000f20565b82919210156200042e576200040d620004056001938360051b81019062000f9e565b369162000fd4565b62000419828562000ebf565b5262000426818462000ebf565b5001620003ad565b634e487b7160e01b600052603260045260246000fd5b506000546200045860446004350162000f59565b906200046960846004350162000f84565b906200047a60646004350162000f6e565b6200049060a46004350160043560040162000f9e565b92620004a760c46004350160043560040162000f9e565b939091620004c060e46004350160043560040162000f9e565b620004d76101046004350160043560040162000f9e565b949095600561012460043501351015620000db57620005026101446004350160043560040162000f9e565b99909a6040519d8e67ffffffffffffffff61020082818101109201111762000a96578f8f929b6200060b9f9c620005c89267ffffffffffffffff620005ef9f996bffffffffffffffffffffffff620005d39b620005e19f60e099856001600160a01b03926102008e016040528d847f000000000000000000000000000000000000000000000000000000000000000016905260a01c1660208d01521660408b01521660608901521660808701526004356004013560a087015260c0860152369162000fd4565b910152369162000fd4565b6101008b0152369162000fd4565b610120880152369162000fd4565b6101408501526101246004350135610160850152369162000fd4565b6101808201526004356101648101356101a08301526101848101356101c08301526101a401356101e08201526040519067ffffffffffffffff6135b083019081119083111762000a965781906135b062001103833960206135b08301526001600160a01b0381511660206135b08401015267ffffffffffffffff60208201511660406135b0840101526001600160a01b0360408201511660606135b0840101526bffffffffffffffffffffffff60608201511660806135b08401015267ffffffffffffffff60808201511660a06135b08401015260a081015160c06135b0840101526101e0620007dd620007a46200078562000766620007476200072960c088015161020060e06135b08c0101526102206135b08b0101906200105c565b60e08801516135b08a01808303601f1901610100909101526200101a565b6101008701516135b08901808303601f1901610120909101526200101a565b6101208601516135b08801808303601f1901610140909101526200101a565b6101408501516135b08701808303601f1901610160909101526200101a565b620007be6101608501516101806135b088010190620010bd565b6101808401516135b08601808303601f19016101a0909101526200101a565b916101a08101516101c06135b0860101526101c0810151826135b08601015201516102006135b08401015203906000f090811562000aac5760043560040135600052600160205260406000206001600160a01b03831673ffffffffffffffffffffffffffffffffffffffff198254161790556002546801000000000000000081101562000a965760018101600255620008769062000e87565b81549060031b906001600160a01b038516821b916001600160a01b03901b1916179055600435604401620008aa9062000f59565b620008ba60646004350162000f6e565b83620008cb60846004350162000f84565b91620008e06004803560a48101910162000f9e565b9190620008f66004803560c48101910162000f9e565b906200090b6004803560e48101910162000f9e565b9290936004356101040160043560040190620009279162000f9e565b9690976004356101440160043560040190620009439162000f9e565b9a909b6040519e8f926001600160a01b03168352602083016101c090526101c0830162000970916200105c565b9367ffffffffffffffff1660408301526bffffffffffffffffffffffff1690606001528c8083039060800152620009a792620010e1565b908a820360a08c0152620009bb92620010e1565b9088820360c08a0152620009cf92620010e1565b9086820360e0880152620009e392620010e1565b90620009fb61010086016101246004350135620010bd565b84820361012086015262000a0f92620010e1565b904267ffffffffffffffff16610140840152600435610164013561016084015260043561018401356101808401526004356101a401356101a08401526001600160a01b031691806004356004013592037f74ece3c05744a23d551bdc50380c55700f80e309c6a98bd770916bf18190467691a3604051906001600160a01b03168152602090f35b634e487b7160e01b600052604160045260246000fd5b6040513d6000823e3d90fd5b806060602080938601015201620003a1565b606460405162461bcd60e51b815260206004820152601660248201527f466163746f72793a206d61726b657420657869737473000000000000000000006044820152fd5b606460405162461bcd60e51b815260206004820152601860248201527f466163746f72793a2066656520657863656564732062707300000000000000006044820152fd5b606460405162461bcd60e51b815260206004820152601960248201527f466163746f72793a20696e76616c696420656e642074696d65000000000000006044820152fd5b606460405162461bcd60e51b815260206004820152601860248201527f466163746f72793a2063726561746f72206973207a65726f00000000000000006044820152fd5b606460405162461bcd60e51b815260206004820152601860248201527f466163746f72793a206d696e2074776f206f7074696f6e7300000000000000006044820152fd5b34620000db576020366003190112620000db5767ffffffffffffffff60043581811691828203620000db577fffffffff0000000000000000ffffffffffffffffffffffffffffffffffffffff917f549cb8c0b87b3a6ddb31c7e2dd6b66f16ddc283b8c41d6c6778b96fc6a4affb360407bffffffffffffffff0000000000000000000000000000000000000000936000549662000cc66001600160a01b038916331462000ed4565b8251918860a01c1682526020820152a160a01b16911617600055600080f35b34620000db576000366003190112620000db5760206001600160a01b0360005416604051908152f35b34620000db576000366003190112620000db576020600254604051908152f35b34620000db576000366003190112620000db5760025462000d53620003858262000e6e565b81815262000d618262000e6e565b6020928383019291601f190136843760005b81811062000dcb575050906040519283926020840190602085525180915260408401929160005b82811062000daa57505050500390f35b83516001600160a01b03168552869550938101939281019260010162000d9a565b806001600160a01b0362000de160019362000e87565b90549060031b1c1662000df5828662000ebf565b520162000d73565b34620000db576000366003190112620000db57602067ffffffffffffffff60005460a01c16604051908152f35b34620000db576000366003190112620000db578061271060209252f35b6040519190601f01601f1916820167ffffffffffffffff81118382101762000a9657604052565b67ffffffffffffffff811162000a965760051b60200190565b6002548110156200042e5760026000527f405787fa12a823e0f2b7631cc41b3ba8828b3321ca811111fa75cd3aa3bb5ace0190600090565b80518210156200042e5760209160051b010190565b1562000edc57565b606460405162461bcd60e51b815260206004820152601560248201527f4f776e65723a206e6f7420617574686f72697a656400000000000000000000006044820152fd5b903590601e1981360301821215620000db570180359067ffffffffffffffff8211620000db57602001918160051b36038313620000db57565b356001600160a01b0381168103620000db5790565b3567ffffffffffffffff81168103620000db5790565b356bffffffffffffffffffffffff81168103620000db5790565b903590601e1981360301821215620000db570180359067ffffffffffffffff8211620000db57602001918136038313620000db57565b92919267ffffffffffffffff821162000a965762000ffc601f8301601f191660200162000e47565b9382855282820111620000db57816000926020928387013784010152565b919082519283825260005b84811062001047575050826000602080949584010152601f8019910116010190565b60208183018101518483018201520162001025565b90808251908181526020809101926020808460051b8301019501936000915b8483106200108c5750505050505090565b9091929394958480620010ac600193601f198682030187528a516200101a565b98019301930191949392906200107b565b906005821015620010cb5752565b634e487b7160e01b600052602160045260246000fd5b908060209392818452848401376000828201840152601f01601f191601019056fe6101c0604052346200110857620035b0803803806200001e816200114b565b9283396020828281010312620011085781516001600160401b03811162001108576102009283828201848301031262001108576040519384016001600160401b038111858210176200052d57604052808201516001600160a01b0381168103620011085784526200009460208383010162001171565b6020850152808201604001516001600160a01b038116810362001108576040850152808201606001516001600160601b038116810362001108576060850152620000e360808383010162001171565b608085015280820160a0818101519086015260c001516001600160401b0381116200110857838201601f82858501010112156200110857818301810151906001600160401b0382116200052d578160051b906020620001448184016200114b565b8094815201868501602084848989010101011162001108576020828787010101905b6020848489890101010182106200110d575050505060c085015280820160e001516001600160401b0381116200110857620001a9908483019084840101620011ab565b60e085015280820161010001516001600160401b0381116200110857620001d8908483019084840101620011ab565b61010085015280820161012001516001600160401b038111620011085762000208908483019084840101620011ab565b61012085015280820161014001516001600160401b038111620011085762000238908483019084840101620011ab565b6101408501526101608282010151600581101562001108576101608501528082016101800151926001600160401b03841162001108576101e093620002849183019084840101620011ab565b610180850152016101a081810151908401526101c0808201519084015201516101e0820152600160005580516001600160a01b031615620010c357600260c082015151106200107e5760608101516127106001600160601b0390911611620010395760808101516001600160401b031642101562000ff45760408101516001600160a01b03161562000faf5780516001600160a01b03908116608090815260208301516001600160401b0390811660c05260408401519092166101005260608301516001600160601b031661012052820151166101405260a08181015160e05233905260005b60c0820151805182101562000559576020908260051b010151601054680100000000000000008110156200052d5760018101806010558110156200054357601060005281517f1b6847dc741a1b0cd08d278845f9d819d87b734759afb55fe2de5cb82a9ae67291909101916001600160401b0382116200052d578254600181811c9116801562000522575b60208210146200050c57601f8111620004c3575b50602090601f831160011462000450576001949392916000918362000444575b5050600019600383901b1c191690841b1790555b016200036a565b01519050388062000429565b908360005260206000209160005b601f1985168110620004aa57509183916001969594938794601f1981161062000490575b505050811b0190556200043d565b015160001960f88460031b161c1916905538808062000482565b919260206001819286850151815501940192016200045e565b836000526020600020601f840160051c81016020851062000504575b601f830160051c82018110620004f757505062000409565b60008155600101620004df565b5080620004df565b634e487b7160e01b600052602260045260246000fd5b90607f1690620003f5565b634e487b7160e01b600052604160045260246000fd5b634e487b7160e01b600052603260045260246000fd5b60e0830151805184916001600160401b0382116200052d5760015490600182811c9216801562000fa4575b60208310146200050c5781601f84931162000f43575b50602090601f831160011462000ec55760009262000eb9575b50508160011b916000199060031b1c1916176001555b6101008101518051906001600160401b0382116200052d5760025490600182811c9216801562000eae575b60208310146200050c5781601f84931162000e4d575b50602090601f831160011462000dcf5760009262000dc3575b50508160011b916000199060031b1c1916176002555b6101208101518051906001600160401b0382116200052d5760035490600182811c9216801562000db8575b60208310146200050c5781601f84931162000d46575b50602090601f831160011462000cb75760009262000cab575b50508160011b916000199060031b1c1916176003555b6101408101518051906001600160401b0382116200052d5760045490600182811c9216801562000ca0575b60208310146200050c5781601f84931162000c2e575b50602090601f831160011462000b9f5760009262000b93575b50508160011b916000199060031b1c1916176004555b610160810151600581101562000a875760ff80196005541691161760055561018081015180519060018060401b0382116200052d5760065490600182811c9216801562000b88575b60208310146200050c5781601f84931162000b27575b50602090601f831160011462000aa95760009262000a9d575b50508160011b916000199060031b1c1916176006555b6007546101a0820151610160526101c0820151610180526101e08201516101a05260018060401b0342169060018060481b0319161760075560a081015160e0820151610100830151610120840151906101408501519460c081015160018060401b036080830151169660018060601b0360608401511660018060a01b0360408501511661016085015191600583101562000a8757610180860151936101a0870151986101c0880151976101e00151986040519b6101c08d526101c08d016200086e9162001202565b8c810360208e0152620008819162001202565b8b810360408d0152620008949162001202565b8a810360608c0152620008a79162001202565b9a898c0360808b01528551808d5260208d01908d8160051b0160200197602001916000905b82821062000a575750508c7f8dda1b59edcfe7f66483dda8b49b81492386efe6cb6abbfa4ab1f5fbc4154a608d808e8e8e6200092b8f8f8f8f8f8f60a08b015260c08a015260e089015261010088015286820361012088015262001202565b426001600160401b03166101408601526101608501939093526101808401526101a08301520390a27fb786c19cad4ec6fc2aeb481fb6b1473feb22fe8caf8abfcb7702a077e98845e4602060405160008152a160405161232690816200122a8239608051818181610ab40152818161114c015261227b015260a051816112e6015260c051818181611480015281816115960152611a97015260e051816115f201526101005181818161155f0152818161172e01528181611cfc0152612127015261012051818181611c3b015261216f0152610140518181816103fb0152818161099101528181610e2d015281816117750152611afb0152610160518181816109c0015261140f015261018051818181610a00015261118801526101a051818181610a3501526118480152f35b909192988f602062000a786001938293601f199082030186528d5162001202565b9b0192019201909291620008cc565b634e487b7160e01b600052602160045260246000fd5b01519050838062000790565b6006600090815293506000805160206200359083398151915291905b601f198416851062000b0b576001945083601f1981161062000af1575b505050811b01600655620007a6565b015160001960f88460031b161c1916905583808062000ae2565b8181015183556020948501946001909301929091019062000ac5565b600660005290915060008051602062003590833981519152601f840160051c81016020851062000b80575b90849392915b601f830160051c8201811062000b7057505062000777565b6000815585945060010162000b58565b508062000b52565b91607f169162000761565b01519050838062000703565b6004600090815293507f8a35acfbc15ff81a39ae7d344fd709f28e8600b4aa8c65c6b64bfe7fe36bd19b91905b601f198416851062000c12576001945083601f1981161062000bf8575b505050811b0160045562000719565b015160001960f88460031b161c1916905583808062000be9565b8181015183556020948501946001909301929091019062000bcc565b60046000529091507f8a35acfbc15ff81a39ae7d344fd709f28e8600b4aa8c65c6b64bfe7fe36bd19b601f840160051c81016020851062000c98575b90849392915b601f830160051c8201811062000c88575050620006ea565b6000815585945060010162000c70565b508062000c6a565b91607f1691620006d4565b01519050838062000693565b6003600090815293507fc2575a0e9e593c00f959f8c92f12db2869c3395a3b0502d05e2516446f71f85b91905b601f198416851062000d2a576001945083601f1981161062000d10575b505050811b01600355620006a9565b015160001960f88460031b161c1916905583808062000d01565b8181015183556020948501946001909301929091019062000ce4565b60036000529091507fc2575a0e9e593c00f959f8c92f12db2869c3395a3b0502d05e2516446f71f85b601f840160051c81016020851062000db0575b90849392915b601f830160051c8201811062000da05750506200067a565b6000815585945060010162000d88565b508062000d82565b91607f169162000664565b01519050838062000623565b6002600090815293506000805160206200355083398151915291905b601f198416851062000e31576001945083601f1981161062000e17575b505050811b0160025562000639565b015160001960f88460031b161c1916905583808062000e08565b8181015183556020948501946001909301929091019062000deb565b600260005290915060008051602062003550833981519152601f840160051c81016020851062000ea6575b90849392915b601f830160051c8201811062000e965750506200060a565b6000815585945060010162000e7e565b508062000e78565b91607f1691620005f4565b015190508380620005b3565b6001600090815293506000805160206200357083398151915291905b601f198416851062000f27576001945083601f1981161062000f0d575b505050811b01600155620005c9565b015160001960f88460031b161c1916905583808062000efe565b8181015183556020948501946001909301929091019062000ee1565b600160005290915060008051602062003570833981519152601f840160051c81016020851062000f9c575b90849392915b601f830160051c8201811062000f8c5750506200059a565b6000815585945060010162000f74565b508062000f6e565b91607f169162000584565b60405162461bcd60e51b815260206004820152601860248201527f4d61726b65743a2063726561746f7220726571756972656400000000000000006044820152606490fd5b60405162461bcd60e51b815260206004820152601360248201527f4d61726b65743a20656e6420696e2070617374000000000000000000000000006044820152606490fd5b60405162461bcd60e51b815260206004820152601b60248201527f4d61726b65743a20696e76616c69642063726561746f722066656500000000006044820152606490fd5b60405162461bcd60e51b815260206004820152601760248201527f4d61726b65743a206d696e2074776f206f7074696f6e730000000000000000006044820152606490fd5b60405162461bcd60e51b815260206004820152601b60248201527f4d61726b65743a20636f6c6c61746572616c20726571756972656400000000006044820152606490fd5b600080fd5b8151906001600160401b038211620011085760208092916200113d89838095898f8f9085019401010101620011ab565b815201920191905062000166565b6040519190601f01601f191682016001600160401b038111838210176200052d57604052565b51906001600160401b03821682036200110857565b60005b8381106200119a5750506000910152565b818101518382015260200162001189565b81601f82011215620011085780516001600160401b0381116200052d57620011dd601f8201601f19166020016200114b565b92818452602082840101116200110857620011ff916020808501910162001186565b90565b906020916200121d8151809281855285808601910162001186565b601f01601f191601019056fe608060408181526004918236101561001657600080fd5b600092833560e01c91826302d05d3f14611cdd5750816304a6175214611cbe57816304f3bcec14611c965781630f2ef8c214611c5f57816317773ebb14611c16578163200d2ed214611bef578163249d39e914611bd25781632ad1da1a14611b1f5781633197cbb614611ada57816333936b7c14611abb578163366d568814611a765781633f530bbb14611a235781633fad9ae01461196f578163404002a61461194a57816346b73177146118975781634bde38c81461186b57816364904071146118305781636bfefd6b146117045781637284e4161461165157816373b2e80e146116155781637998a1c4146115da5781637f03c36c14611503578163817b1cd2146114e45781639349d051146114325781639619367d146113f757816396684bdb146113d8578163a8e4fb90146113ad578163b4d3aa8414611369578163ba422b3b1461134a578163c19d93fb1461130a578163c45a0155146112c6578163cc2ee196146111d4578163cf09e0d0146111ab578163cf23397f14611170578163d8dfeb451461112c578163d9fe748014610dcb578163dcb3b30e1461092f578163de431eca14610852578163e2cbdd8514610833578163e32fe90b14610814578163e88499a914610568578163ef430aa614610477578163f481d3be14610452578163f56039a814610247575063f72d42191461021457600080fd5b34610243576020366003190112610243578060209260ff610233611e92565b1681526011845220549051908152f35b5080fd5b90503461044e578160031936011261044e57610261611e92565b9160243591610274600286541415611ee9565b6002855560ff6010549416938410156104405760ff600754831c168181101561042d57801590816103f9575b81156103ee575b50156103e05782156103d25733855260209060128252828620858752825282862054908482106103c4575090837f62a1ef7bdb120745c2af942f04dab40b294e104341ba5ce2292809a86bc1d613939233885260128352838820878952835203828720556011815281862084815403905583600b5403600b5533865260148152818620805490858203905560158252828720908154908660ff831691826103ba575b505061037a575b505061035c8433612210565b84865260118152818620549082519485528401523392a36001815580f35b60ff191690557feb4f4b6798fd166c64b51f6cee5b0ae199ef126ae41e8eeb8d1b82aeb0da659f81600019600f540180600f558451908152a13880610350565b1490508638610349565b835163162908e360e11b8152fd5b905163162908e360e11b8152fd5b905163e2c865df60e01b8152fd5b6003915014386102a7565b7f000000000000000000000000000000000000000000000000000000000000000067ffffffffffffffff16421091506102a0565b602486602184634e487b7160e01b835252fd5b9051632a71953160e01b8152fd5b8280fd5b50503461024357816003193601126102435760209060ff60075460481c169051908152f35b828434610565578060031936011261056557815191828260035461049a81611d3b565b908184526020956001918760018216918260001461053e5750506001146104e2575b5050506104de92916104cf910385611d75565b51928284938452830190611e52565b0390f35b9190869350600383527fc2575a0e9e593c00f959f8c92f12db2869c3395a3b0502d05e2516446f71f85b5b82841061052657505050820101816104cf6104de6104bc565b8054848a01860152889550879490930192810161050d565b60ff19168782015293151560051b860190930193508492506104cf91506104de90506104bc565b80fd5b838334610243578160031936011261024357610588600283541415611ee9565b6002825560075460ff918282821c1685811015610801576002036107d957338452602091601383528382862054166107b157600c54156107a25733855260129060128452848387209160501c16865283528185205493841561079357338652601384528286209061062360019660ff1993600185825416179055601287528589208360075460501c168a5287528886812055600d5490611fd0565b600c549081156107805704956106398733612210565b338852601486528488205461067c575b87877fec68461f5d4cc45c89e914cb8826a966c73dd35e5f97815ece0a01ffa4a025a68888519283523392a26001815580f35b928793808992601054915b610746575b5050505033875260148552828488205560158552838720928354918216908161073d575b506106bc575b80610649565b169055600f54600019810190811161072a577fec68461f5d4cc45c89e914cb8826a966c73dd35e5f97815ece0a01ffa4a025a69394955082817feb4f4b6798fd166c64b51f6cee5b0ae199ef126ae41e8eeb8d1b82aeb0da659f92600f558351908152a184939286806106b6565b602485601188634e487b7160e01b835252fd5b905015896106b0565b90919295878b8689168b868210156107765733835285815283832091835252205401958301841692919082610687565b505050509561068c565b60248960128c634e487b7160e01b835252fd5b8683516312d37ee560e31b8152fd5b8582516312d37ee560e31b8152fd5b8582517f646cf558000000000000000000000000000000000000000000000000000000008152fd5b8490517f2e96c726000000000000000000000000000000000000000000000000000000008152fd5b602485602188634e487b7160e01b835252fd5b5050346102435781600319360112610243576020906010549051908152f35b505034610243578160031936011261024357602090600c549051908152f35b9190503461044e578260031936011261044e57805183819490845461087681611d3b565b91828552602096600192886001821691826000146109055750506001146108aa575b85886104de896104cf848a0385611d75565b815286935091907f8a35acfbc15ff81a39ae7d344fd709f28e8600b4aa8c65c6b64bfe7fe36bd19b5b8284106108ed57505050820101816104cf6104de38610898565b8054848a0186015288955087949093019281016108d3565b60ff19168882015294151560051b870190940194508593506104cf92506104de9150389050610898565b90503461044e578160031936011261044e57610949611e92565b91602480359261095d600287541415611ee9565b6002865560ff601054951694851015610dbd5760ff600754841c1681811015610dab57610d9d5767ffffffffffffffff91827f000000000000000000000000000000000000000000000000000000000000000016421015610d8e578415610d7f577f000000000000000000000000000000000000000000000000000000000000000080610d31575b50338752602092601484526109fd86868a2054611f34565b907f000000000000000000000000000000000000000000000000000000000000000080610ce4575b50610a3287600b54611f34565b907f000000000000000000000000000000000000000000000000000000000000000080610c97575b508651868101917f23b872dd00000000000000000000000000000000000000000000000000000000835233868301523060448301528960648301526064825260a082019082821090821117610c85578852518a91829190827f00000000000000000000000000000000000000000000000000000000000000006001600160a01b03165af1610ae66121b8565b81610c55575b5015610c145733895260128552858920888a528552858920610b0f888254611f34565b905587895260118552858920610b26888254611f34565b9055600b55338852601484528488205560158352838720805460ff811615610b8e575b50505050907f8d3970b91d4f8dbb1a8368398f1ac8bdd7a7fb5682c8360b7396214f65d7e55f9184865260118152818620549082519485528401523392a36001815580f35b60019060ff1916179055600f549160018301809311610c03575050907feb4f4b6798fd166c64b51f6cee5b0ae199ef126ae41e8eeb8d1b82aeb0da659f81837f8d3970b91d4f8dbb1a8368398f1ac8bdd7a7fb5682c8360b7396214f65d7e55f9594600f558451908152a19091388080610b49565b60118891634e487b7160e01b835252fd5b606484601b85888a519362461bcd60e51b85528401528201527f4d61726b65743a207472616e7366657246726f6d206661696c656400000000006044820152fd5b80518015925087908315610c6d575b50505038610aec565b610c7d93508201810191016121f8565b388681610c64565b858c604189634e487b7160e01b835252fd5b8211610ca35738610a5a565b606485601d86898b519362461bcd60e51b85528401528201527f4d61726b65743a2065786365656473206d6178546f74616c5374616b650000006044820152fd5b8211610cf05738610a25565b606484601d85888a519362461bcd60e51b85528401528201527f4d61726b65743a2065786365656473206d6178426574506572557365720000006044820152fd5b8510610d3d57386109e5565b906014606492602086519362461bcd60e51b85528401528201527f4d61726b65743a2062656c6f77206d696e4265740000000000000000000000006044820152fd5b50825163162908e360e11b8152fd5b50825163e2c865df60e01b8152fd5b825163e2c865df60e01b8152fd5b5060218691634e487b7160e01b835252fd5b8251632a71953160e01b8152fd5b838334610243578060031936011261024357610de5611e92565b602493843567ffffffffffffffff928382116111285736602383011215611128578183013593808511611124573688868501011161112457610e2b600288541415611ee9565b7f0000000000000000000000000000000000000000000000000000000000000000164210611115576010549260ff821693841015611107576007549060ff82881c16818110156110f5576110e857509068010000000000000000917fff0000000000000000000000000000000000000000ff0000ffffffffffffffff69ff0000000000000000007effffffffffffffffffffffffffffffffffffffff00000000000000000000003360581b169360481b16911617171760075542600955610ef3600a54611d3b565b601f8111611085575b508495601f8411600114610fb6578392918382602097967fa37c6228a9addc8843ccfbc9a5a5f4cabd07730b2450a80abc7681f327ab163f948a9b7fb786c19cad4ec6fc2aeb481fb6b1473feb22fe8caf8abfcb7702a077e98845e49b92610fa9575b50508260011b906000198460031b1c191617600a555b865192888452828985015201868301378785858301015284813395601f80199101168101030190a351838152a16001815580f35b850101359050818c610f5f565b600a86527fc65a7bb8d6351c1cf70c95a316cc6a92839c986682d98bc35f958f4883f9d2a8601f198516875b81811061106b5750947fa37c6228a9addc8843ccfbc9a5a5f4cabd07730b2450a80abc7681f327ab163f92819594927fb786c19cad4ec6fc2aeb481fb6b1473feb22fe8caf8abfcb7702a077e98845e4999a8360209a991061104f575b5050600182811b01600a55610f75565b8401820135600019600385901b60f8161c191690558a8061103f565b848a0184013583556020998a019960019093019201610fe2565b600a86527fc65a7bb8d6351c1cf70c95a316cc6a92839c986682d98bc35f958f4883f9d2a8601f850160051c810191602086106110de575b601f0160051c01905b8181106110d35750610efc565b8681556001016110c6565b90915081906110bd565b86516282b42960e81b8152fd5b8989602184634e487b7160e01b835252fd5b8551632a71953160e01b8152fd5b82855163e2c865df60e01b8152fd5b8680fd5b8580fd5b505034610243578160031936011261024357602090516001600160a01b037f0000000000000000000000000000000000000000000000000000000000000000168152f35b505034610243578160031936011261024357602090517f00000000000000000000000000000000000000000000000000000000000000008152f35b50503461024357816003193601126102435760209067ffffffffffffffff600754169051908152f35b828434610565578060031936011261056557601054906111f382611fa4565b9061120084519283611d75565b82825261120c83611fa4565b60209390601f190184835b8281106112b657505050815b81811061128557505083519280840190808552835180925280868601968360051b870101940192955b8287106112595785850386f35b909192938280611275600193603f198a82030186528851611e52565b960192019601959291909261124c565b8061129a611294600193611f57565b50611dad565b6112a48287611fbc565b526112af8186611fbc565b5001611223565b6060828288010152018590611217565b505034610243578160031936011261024357602090516001600160a01b037f0000000000000000000000000000000000000000000000000000000000000000168152f35b83833461024357816003193601126102435760ff600754821c169051918382101561133757602083838152f35b80602185634e487b7160e01b6024945252fd5b505034610243578160031936011261024357602090600e549051908152f35b8284346105655760203660031901126105655750813591601054831015610440575061139a6112946104de93611f57565b9051918291602083526020830190611e52565b5050346102435781600319360112610243576020906001600160a01b0360075460581c169051908152f35b505034610243578160031936011261024357602090600d549051908152f35b505034610243578160031936011261024357602090517f00000000000000000000000000000000000000000000000000000000000000008152f35b90503461044e578260031936011261044e57611452600284541415611ee9565b600283556007549160ff83821c16828110156114d1576001036114c5576114a660095467ffffffffffffffff7f00000000000000000000000000000000000000000000000000000000000000001690611f34565b42106114c557836114be8460ff339160481c16611ff0565b6001815580f35b516282b42960e81b8152fd5b602485602185634e487b7160e01b835252fd5b505034610243578160031936011261024357602090600b549051908152f35b90503461044e57602036600319011261044e5761151e611e92565b9161152d600285541415611ee9565b6002845560105460ff841610156115cd5760ff600754821c16828110156114d1576001036114c5576001600160a01b037f00000000000000000000000000000000000000000000000000000000000000001633036114c5576115bc60095467ffffffffffffffff7f00000000000000000000000000000000000000000000000000000000000000001690611f34565b42116114c557836114be3385611ff0565b51632a71953160e01b8152fd5b505034610243578160031936011261024357602090517f00000000000000000000000000000000000000000000000000000000000000008152f35b5050346102435760203660031901126102435760ff816020936001600160a01b0361163e611d20565b1681526013855220541690519015158152f35b828434610565578060031936011261056557815191828260025461167481611d3b565b908184526020956001918760018216918260001461053e5750506001146116a8575050506104de92916104cf910385611d75565b9190869350600283527f405787fa12a823e0f2b7631cc41b3ba8828b3321ca811111fa75cd3aa3bb5ace5b8284106116ec57505050820101816104cf6104de6104bc565b8054848a0186015288955087949093019281016116d3565b90503461044e578260031936011261044e57611724600284541415611ee9565b6001600160a01b037f0000000000000000000000000000000000000000000000000000000000000000163303611823576007549060ff82841c1681811015611810576117e95767ffffffffffffffff7f0000000000000000000000000000000000000000000000000000000000000000164210156117e9575068ff00000000000000001916680300000000000000001760075551600281527fb786c19cad4ec6fc2aeb481fb6b1473feb22fe8caf8abfcb7702a077e98845e490602090a16001815580f35b82517fe697a8a5000000000000000000000000000000000000000000000000000000008152fd5b602485602184634e487b7160e01b835252fd5b90516282b42960e81b8152fd5b505034610243578160031936011261024357602090517f00000000000000000000000000000000000000000000000000000000000000008152f35b83833461024357816003193601126102435760ff60055416905191600582101561133757602083838152f35b8284346105655780600319360112610565578151918282600a546118ba81611d3b565b908184526020956001918760018216918260001461053e5750506001146118ee575050506104de92916104cf910385611d75565b9190869350600a83527fc65a7bb8d6351c1cf70c95a316cc6a92839c986682d98bc35f958f4883f9d2a85b82841061193257505050820101816104cf6104de6104bc565b8054848a018601528895508794909301928101611919565b50503461024357816003193601126102435760209060ff60075460501c169051908152f35b82843461056557806003193601126105655781519182826001936001549461199686611d3b565b918285526020968760018216918260001461053e5750506001146119c7575050506104de92916104cf910385611d75565b9190869350600183527fb10e2d527612073b26eecdfd717e6a320cf44b4afac2b0732d9fcbe2b7fa0cf65b828410611a0b57505050820101816104cf6104de6104bc565b8054848a0186015288955087949093019281016119f2565b505034610243578060031936011261024357611a3d611d20565b6024359060ff8216809203611a72579282916001600160a01b0360209516825260128552828220908252845220549051908152f35b8380fd5b5050346102435781600319360112610243576020905167ffffffffffffffff7f0000000000000000000000000000000000000000000000000000000000000000168152f35b505034610243578160031936011261024357602090600f549051908152f35b5050346102435781600319360112610243576020905167ffffffffffffffff7f0000000000000000000000000000000000000000000000000000000000000000168152f35b8284346105655780600319360112610565578151918282600654611b4281611d3b565b908184526020956001918760018216918260001461053e575050600114611b76575050506104de92916104cf910385611d75565b9190869350600683527ff652222313e28459528d920b65115c16c04f3efc82aaedc97be59f3f377c0d3f5b828410611bba57505050820101816104cf6104de6104bc565b8054848a018601528895508794909301928101611ba1565b505034610243578160031936011261024357602090516127108152f35b50503461024357816003193601126102435760209060ff611c0e611ea2565b915191168152f35b505034610243578160031936011261024357602090516bffffffffffffffffffffffff7f0000000000000000000000000000000000000000000000000000000000000000168152f35b50503461024357602036600319011261024357806020926001600160a01b03611c86611d20565b1681526014845220549051908152f35b5050346102435781600319360112610243576020906001600160a01b03600854169051908152f35b5050346102435781600319360112610243576020906009549051908152f35b8490346102435781600319360112610243576020906001600160a01b037f0000000000000000000000000000000000000000000000000000000000000000168152f35b600435906001600160a01b0382168203611d3657565b600080fd5b90600182811c92168015611d6b575b6020831014611d5557565b634e487b7160e01b600052602260045260246000fd5b91607f1691611d4a565b90601f8019910116810190811067ffffffffffffffff821117611d9757604052565b634e487b7160e01b600052604160045260246000fd5b90604051918260008254611dc081611d3b565b90818452602094600191600181169081600014611e305750600114611df1575b505050611def92500383611d75565b565b600090815285812095935091905b818310611e18575050611def9350820101388080611de0565b85548884018501529485019487945091830191611dff565b92505050611def94925060ff191682840152151560051b820101388080611de0565b919082519283825260005b848110611e7e575050826000602080949584010152601f8019910116010190565b602081830181015184830182015201611e5d565b6004359060ff82168203611d3657565b60ff60075460401c166004811015611ed35760028114611ecd57600314611ec857600090565b600290565b50600190565b634e487b7160e01b600052602160045260246000fd5b15611ef057565b606460405162461bcd60e51b815260206004820152601f60248201527f5265656e7472616e637947756172643a207265656e7472616e742063616c6c006044820152fd5b91908201809211611f4157565b634e487b7160e01b600052601160045260246000fd5b601054811015611f8e5760106000527f1b6847dc741a1b0cd08d278845f9d819d87b734759afb55fe2de5cb82a9ae6720190600090565b634e487b7160e01b600052603260045260246000fd5b67ffffffffffffffff8111611d975760051b60200190565b8051821015611f8e5760209160051b010190565b81810292918115918404141715611f4157565b91908203918211611f4157565b906007549060ff8260401c166004811015611ed357600281149081156121ad575b5061219d57680200000000000000006001600160a01b03926aff0000000000000000000060ff86169560501b16906aff00ff0000000000000000191617176007551690817fffffffffffffffffffffffff000000000000000000000000000000000000000060085416176008558060005260116020527f0e512627591987181ca91facfd73461afa829898351cda88f57ce4beb028965c6020604060002054600b546120bd8282611fe3565b9160009280612156575b50600c5581600e55811515908282600014612150576120e591611fe3565b600d55612121575b604051908152a37fb786c19cad4ec6fc2aeb481fb6b1473feb22fe8caf8abfcb7702a077e98845e4602060405160018152a1565b61214b817f0000000000000000000000000000000000000000000000000000000000000000612210565b6120ed565b506120e5565b612710919350612195906bffffffffffffffffffffffff7f00000000000000000000000000000000000000000000000000000000000000001690611fd0565b0491386120c7565b60046040516282b42960e81b8152fd5b600391501438612011565b3d156121f3573d9067ffffffffffffffff8211611d9757604051916121e7601f8201601f191660200184611d75565b82523d6000602084013e565b606090565b90816020910312611d3657518015158103611d365790565b906001600160a01b03604051918160208401947fa9059cbb000000000000000000000000000000000000000000000000000000008652166024840152604483015260448252608082019282841067ffffffffffffffff851117611d97576000809493819460405251927f0000000000000000000000000000000000000000000000000000000000000000165af16122a56121b8565b816122f7575b50156122b357565b606460405162461bcd60e51b815260206004820152601760248201527f4d61726b65743a207472616e73666572206661696c65640000000000000000006044820152fd5b805180159250821561230c575b5050386122ab565b61231f92506020809183010191016121f8565b388061230456405787fa12a823e0f2b7631cc41b3ba8828b3321ca811111fa75cd3aa3bb5aceb10e2d527612073b26eecdfd717e6a320cf44b4afac2b0732d9fcbe2b7fa0cf6f652222313e28459528d920b65115c16c04f3efc82aaedc97be59f3f377c0d3f","linkReferences":{}},"methodIdentifiers":{"BPS()":"249d39e9","allMarkets()":"375a7cba","collateral()":"d8dfeb45","createMarket((uint256,string[],address,uint64,uint96,string,string,string,string,uint8,string,uint256,uint256,uint256))":"d47b4a05","creatorOverrideWindow()":"366d5688","marketAt(uint256)":"f3c54006","marketForIdentifier(uint256)":"fce1dec2","owner()":"8da5cb5b","setCreatorOverrideWindow(uint64)":"920f0fb1","totalMarkets()":"8162486b","transferOwnership(address)":"f2fde38b"},"id":5}